:020000040000FA
:10000000E81B002011130100050501006312010027
:1000100000000000000000000000000000000000E0
:10002000000000000000000000000000811301003B
:1000300000000000000000000505010005050100AA
:10004000D9130100DF1301000505010005050100BA
:100050000505010005050100050501000505010074
:10006000E51301000505010005050100EB13010082
:1000700005050100F1130100AD020000277A000020
:100080000505010005050100050501000505010044
:100090000505010005050100050501000505010034
:1000A000F7130100FD13010005050100050501001E
:1000B0000505010005050100050501000505010014
:1000C0000CFFFFFFDBE5B1512E00500003B40148E7
:1000D000019001BD0500002000F002F811F009F9BF
:1000E0000CA030C8083824182D18A246671EAB464D
:1000F00054465D46AC4201D111F0FBF87E460F3EFE
:100100000FCCB6460126334200D0FB1AA246AB46BE
:1001100033431847C4130100F4130100103A02D30B
:1001200078C878C1FAD8520701D330C830C101D598
:1001300004680C607047000000230024002500269E
:10014000103A01D378C1FBD8520700D330C100D593
:100150000B6070471FB5C046C04611F06FF804B081
:100160000FB41FBD82690249816102481044704783
:10017000790100000100000001B41EB400B50EF0CA
:1001800015FF01B40198864601BC01B01EBD0000F8
:10019000F0B44046494652465B460FB402A00130D7
:1001A00001B50648004700BF01BC86460FBC80462B
:1001B000894692469B46F0BC70470000D90000007B
:1001C00070B505460C46164602E00FCC0FC5103E32
:1001D000102EFAD2082E02D303CC03C5083E042EFB
:1001E00007D301CC01C5361F03E021782970641CB8
:1001F0006D1C761EF9D270BD8307FF22DB0E9A407C
:100200008907090E994000280BDA0007000F08380B
:10021000830827489B001818C36993430B43C361A5
:100220007047830823489B001B18186890430843B5
:100230001860704710B5044600210120FFF7DCFF6D
:1002400000211820FFF7D8FF00210B20FFF7D4FF73
:1002500002211920FFF7D0FF02210D20FFF7CCFF6C
:1002600002210E20FFF7C8FF02210F20FFF7C4FF75
:100270000221C81FFFF7C0FF03211620FFF7BCFFB4
:1002800003211520FFF7B8FF204600F017F80020E3
:1002900010BD10B500F033F810BD0748704710B519
:1002A00000F02EF810BD704770477047704700008F
:1002B00000ED00E000E400E003E9008330B504460F
:1002C00095B02B4802F0FAFC0546072000F09EFE90
:1002D0002946284800F0D8FEA41F072C0AD8302150
:1002E00068460170847001F066FE002802D009A8FB
:1002F00001F020F9284601F062FF15B030BD7047CB
:1003000010B50C460121502801D2216010BD0246D3
:10031000503A0B2A03D8214602F010FB06E00246B1
:100320005C3A032A04D8214602F034FB206010BD59
:100330000246603A1F2A03D8214600F02BF8F5E761
:100340000246803A1F2A03D8214600F0AFF8EDE7B5
:100350000246A03A0F2A03D8214600F012F9E5E739
:100360000246B03A0F2AD0D8214600F0EFF8DDE778
:100370005F25000070140100704770477047704798
:10038000704770477047704710B5012801D100F0E1
:1003900096FE10BD10B56038030011F05CF8150C26
:1003A00010141E22252B33383D41454950555B64BE
:1003B0006D757B808500086803F0E0FE10BD08685D
:1003C00003F033FF10BDC8688A68C3B24868C4B27E
:1003D0000868214603F050FF10BD086803F0CAFF0B
:1003E00010BD03F09DFC10BD05C980B2114604F09C
:1003F0004EF910BD4868C2B20868114680B204F0D8
:100400009DF910BD086840B204F0A8F910BD086855
:1004100080B204F0C3F910BD086804F0D2F910BD31
:10042000086804F0EAF910BD086804F016FA10BD77
:10043000886882B209C9194604F041FA10BD05C99D
:10044000114604F090FA10BD05C980B2114604F0BF
:10045000ABFA10BD48688A68C3B20868194680B212
:1004600004F0ECFA10BD48688A68C3B208681946FF
:1004700080B204F094FB10BD08684B688A6880B2B3
:10048000194604F0CCFB10BD05C980B2114604F03A
:1004900018FC10BD086880B204F031FC10BD08687B
:1004A00080B204F059FC10BD012010BD10B5803899
:1004B000030010F0D0FF09060F151B2129333B4123
:1004C000490048688A6883B20868194680B204F017
:1004D000EFFF10BD05C980B2114605F042F810BD0E
:1004E00005C980B2114605F077F810BD05C980B284
:1004F000114605F0BBF810BD08684B688A6880B2E9
:10050000194605F0E9F810BD886882B2486883B2E0
:100510000868194680B205F01BF910BD886882B2E0
:1005200009C980B2194605F04EF910BD05C980B25F
:10053000114605F07CF910BD486882B20868114682
:1005400080B205F0E4F910BD012010BD10B5B0284F
:1005500005D0B12808D0B2280BD0012010BD086802
:1005600080B205F0C6FC10BD086880B205F0F0FC52
:1005700010BD08684B688A6880B2194605F0F9FC1E
:1005800010BD10B5A038030010F065FF0B070F1861
:100590002129323B414B5159610008684B688A68F8
:1005A000C0B2194606F0B8FE10BD48688A6883B22A
:1005B0000868194680B206F0C4FE10BD08684C6891
:1005C000CB688A6880B2214606F0CBFE10BD086871
:1005D0004B688A6880B2194606F0E5FE10BD081D1A
:1005E0000DC884B20868214680B206F0F7FE10BD3F
:1005F000081D0DC884B20868214680B206F0FEFED0
:1006000010BD05C980B2114606F014FF10BD886800
:1006100082B2486883B20868194680B206F015FFB6
:1006200010BD05C980B2114606F030FF10BD8868C4
:1006300082B209C980B2194606F098FF10BD086859
:100640004B688A6880B2194607F05DF810BD01203A
:1006500010BD0000FA4881690122520611438161F0
:100660007047F849002008607047F5484169F64A2C
:100670001140F64A891841618169090A0902253148
:1006800081617047F8B5F248C06A00070FD4F0489E
:100690004030C26AEB49C0314A62026B8A62426BE7
:1006A000CA62826B0A63C06BCA0510434863FF20AD
:1006B000E34B01305861032000049861FFF7D5FF38
:1006C000E4489863FF20043058630024DC6001266E
:1006D0001E63DC62E04803210160E048C4600461FD
:1006E000446044618461DE4A102050601961D4493D
:1006F000962040314860D3480460FFF7ABFFD948EB
:100700000421016102218160D84DD74F6F620FF043
:10071000C5FA2862D44840306863D048001D286379
:10072000D1484430E863CD481030A863CD4840300C
:1007300004604460FE60CE4804603F20CB49000264
:1007400040394860CB48847044700146447620317B
:100750000C724461847204622C300EF06DFB002830
:1007600004D0FF20C4A1773010F075FDF8BDC14959
:10077000012008707047BF4900200870704770471B
:100780007047AF4940310028086802D00122104369
:1007900001E0400840000860704770B50C46B54D58
:1007A00001460622E81C10F0D7FB6C7270BDB14800
:1007B000407E7047AF4A917050707047F3B5A14DBD
:1007C0000746286881B0C0430006000E3BD00024D5
:1007D000012601E0641CE4B228683146A1400842C9
:1007E00002D0082CF6D301E0082C04D3FF20A2A1EC
:1007F000BC3010F030FD78793A790102914811430C
:10080000A2004038101800900162781C10F005FC1E
:10081000010238780143009801600298002813D043
:10082000012804D0FF2094A1CA3010F014FD2868DC
:100830002146083132468A40104328602868A64085
:10084000304328600120FEBD286821460831324629
:100850008A409043F1E710B58107890F1DD18110BF
:100860000A3177480B0010F0F6FD0C15181818180F
:1008700013110F0D0B09071804210CE000210AE0E9
:10088000FC2108E0F82106E0F42104E0F02102E078
:10089000EC2100E0D821C16010BDFF2076A1FC3022
:1008A00010F0D9FC10BD734820300079704710B5A6
:1008B000634C616A090A09026162616AC278114384
:1008C0006162E169C9B2E16110F0A7FBE169000270
:1008D0000843E06110BD252808D0262808D0272825
:1008E00008D041000A2807D8091D06E0022105E0CA
:1008F0001A2103E0502101E0891DC9B2504A9160DC
:100900004F494031486170475A494861704770B556
:10091000584CA07200F027FBA07AC0073CD04E4D87
:100920002868800703D454A1574810F094FCA07A9B
:1009300001061AD5800707D553484FA1801C10F037
:100940008AFCA07A000610D52078484E012813D0E2
:10095000002804D0152048A1400110F07CFC3F483D
:10096000FC3870610FF09AF93061A07A800713D5D6
:100970002868C00707D101E04448F2E755203EA1AE
:10098000C00010F068FCA07A4007286801D5042157
:1009900000E008210843286070BD70B50124354D82
:1009A000002807D0012817D0022819D08F2032A1A3
:1009B00080000AE000F0D7FA29783448012907D0EE
:1009C000002907D030482CA1653810F044FC70BDD8
:1009D000046070BD446070BD8120FFF798FF70BD5A
:1009E00000F0C1FA6869002804D1274822A15D38C7
:1009F00010F031FC6969286A40181A494031C86012
:100A00001B491A480C3140300160204910314160C7
:100A1000081416494039486016482030047270BDE9
:100A2000F8B50F4C0C206168C906CD0F1026A660E2
:100A30000A4900220A61154F01233B6134E000009E
:100A40000015004040160040F0FFF0FF06000200D5
:100A5000800000105B060000001200400011004002
:100A600000130040008500400080004040F5014038
:100A700040810040280100207372635C68616C5FF4
:100A80007263732E630000008F02000000100040AC
:100A900000BF00BF00BF00BF00BF00BF00BF00BF5E
:100AA000401E0006000E06D00B69002BF0D00A6134
:100AB000002806D100E00A612520FE49000110F05F
:100AC000CAFB002D00D06660F8BDFB488169012299
:100AD000520691438161704710B510F09EFA0002F2
:100AE000F549000AC86310BDF3484169F34A114053
:100AF000F34A891841618169090A09021F3181613C
:100B00007047F049022008607047EE4902208039A2
:100B100008607047EC490870704710B5EB480EF05C
:100B200093F9002804D0B120E249800010F093FB33
:100B300010BD10B5E5480EF09FF910BDDE494860C4
:100B40007047E24910B52C39E14B0022C8601A60A9
:100B5000096A0818DF49086000F00CFA10BDDB488C
:100B600010B5C2212C38C160D94A00211160006A39
:100B7000D849C230086000F0FDF910BDD649002008
:100B80008861C861D1492C39C860D2490860704772
:100B9000D24901204860C860CD4900200860CB4997
:100BA0002C3908627047C948CA492C38006AFE309F
:100BB00088607047C749002088607047C84801684E
:100BC000102291430160C749012088617047C649DE
:100BD0000020C861C24801681022114301607047BB
:100BE00000B5FFF7EBFFB94900202C39087400BDB0
:100BF00000B5FFF7ECFFB54901202C39087400BDA2
:100C0000B949CA69012A01D000207047AA4A403276
:100C100092685206520E524202700020C8610120B2
:100C20007047F8B5B04C2069012806D00021A748CC
:100C30002C380078012802D004E04021F7E7E26870
:100C4000012A04D000220A43012802D004E0202215
:100C5000F9E76168012905D000211143A34A002862
:100C600002D007E01021F8E71368012B02D1E368F6
:100C7000012B04D000230B43002802D007E00823F7
:100C8000F9E71168002902D1E168012905D00022A5
:100C90001A438F4E002802D004E00422F8E731689E
:100CA000012904D000211143002802D004E00221D0
:100CB000F9E76068012829D000258D480D430168B7
:100CC0000906090E02D06169012900D000217F4F79
:100CD0000C3F397100680006000E02D0A06901289F
:100CE00000D0002078717B488068002803D006F08F
:100CF000FEFE012800D00020B8710021E1602161D2
:100D000061606161A16131602846F8BD0125D4E7C9
:100D10006E4801210C38C1717047F8B56B4E012740
:100D20000C3E307A0025002825D06D4C20680090BC
:100D30002560FFF775FE009820606B48C56005616F
:100D400045604561856164490014403988603046DA
:100D5000203801786348012909D0002909D0554974
:100D6000644810F078FAFFF7B1F93572F8BD076002
:100D7000F9E74760F7E7FFF754FF04460020F071FA
:100D800054480168514D2C3DE961406828622A7839
:100D9000002A09D1AA78002A06D0474B5B681B7845
:100DA00013406A789A4309D000222A76E20707D0D6
:100DB000084608F0F2FF0121286A08E02F76F5E7DF
:100DC000A10601D5022102E0A10702D5002108F009
:100DD000F3FF394F796806220931E81C10F08FF8CB
:100DE000002807D1687A79680978C909884201D151
:100DF000012000E000206876204600F0C1F832486B
:100E0000C2270078002815D0012828D002283BD01E
:100E100003284ED02749384810F01DFA287C0028B6
:100E200004D02878002869D0FFF7C8FE2878002869
:100E300065D091E0A00701D508F04EF8200703D552
:100E40000120EF6008F078F8600703D50020EF601C
:100E500008F072F8A006E1D507F0F1FFDEE7A00781
:100E600001D50AF026FA200703D50120EF600AF029
:100E70009FF9600703D50020EF600AF099F9A006FA
:100E8000CCD50AF020F9C9E7A00703D5BF2004405C
:100E90000AF028FB200705D5BF2004400120EF60A1
:100EA0000AF01FFB60072DD5BF2004400020EF6033
:100EB00026E032E0780A000000150040F0FFF0FF65
:100EC0000500030080E100E0140000205401002030
:100ED000408100404085004040F5014000800040D6
:100EE00000120040001000400011004000140040BB
:100EF0004016004073030000A304000022E024E039
:100F00000AF0EFFAA00603D5BF2004400AF0E8FA81
:100F1000600683D50AF0E7FA80E7A00701D50AF05A
:100F2000E5FA200703D50120EF600AF0DEFA60073A
:100F300003D50020EF600AF0D8FAA0068ED50AF09B
:100F4000D3FA6BE7FFF743FE70E7E868002803D0A9
:100F5000296A091827480160F079002800D105E7BF
:100F6000FFF7B4F8F8BD24490320086023490020A6
:100F70000861704721482249C16122498161704757
:100F800070B50546FFF7EFFF1F4CA17A080701D5A2
:100F900068071DD4C80607D51B4820304279002AAF
:100FA00002D08079002813D0880602D5207E002840
:100FB0000ED1480602D5607E002809D000208A079D
:100FC0000026002A07DA4A0704D50122227002E02F
:100FD0000120F4E72670CA0709D0AA0705D48907BB
:100FE00005D5002803D0A80601D4FFF719FDA67285
:100FF00070BD0000408500400012004040F50140F7
:1010000010100040408100402801002010B5FFF77B
:1010100039FB0DF0C0FD06F0B9FC0DF03BFF06F00A
:1010200023FD06F04DFC10BD1CB5044600206946AA
:101030000870204607F09EFC6946204607F05CFBDE
:10104000002803D1FBA1B52010F005F901A9204625
:1010500007F0B1FA002803D1F6A1BA2010F0FBF88E
:10106000684600781CBDF849002008760A46C87713
:1010700020321071603A1070203290739074907624
:10108000087488707047EEE710B50C46EF49828807
:101090008A8042884A800078087008460A3884703E
:1010A00007F05FFAFFF7DFFF204608F084FB07F048
:1010B000CFFCE64809F0B7FE07F053FC10BD10B5B1
:1010C0000120FFF759F910BDF8B508F0B2F8DF4D6F
:1010D000DD4C0A3D022802D0207C00287CD0207EF6
:1010E000002610281AD1A078002804D0BF20D1A152
:1010F000C00010F0B0F8D448E038817989070DD5E8
:101100000146267160394989E180C17921720189DE
:1011100061814089A0810120A0702676CA4F203FBE
:10112000B87C002858D1CA486946408907F0E4FADB
:10113000002805D06946687809784018687003E08F
:10114000BCA1C44810F087F8207C002838D0C048E3
:101150004189FF300130406D4089814204D0BD4853
:10116000B4A1401D10F077F8B948408907F06AFB38
:10117000002804D13120AFA1400110F06CF807F035
:10118000D8FB00281CD0B2484089FFF74DFF697892
:1011900040186870AC484038416D20318A7B012A84
:1011A0000DD1AB4A3E775289C287C87B207001209F
:1011B000B876207E102801D0282800D12676267403
:1011C0006978002908D0A2484289FF300130C286E0
:1011D00001870120B8746E7008F01FF8002805D14F
:1011E000207C002802D0A87801F08CFDF8BDF8B56D
:1011F00004460F46FFF768FF934D403D2878924E16
:10120000002813D0002F10D1307E002804D0FF20FA
:1012100088A1B93010F01FF82C22A91C20460FF02D
:101220009BFE0E202070002028708FE0864D203D10
:10123000A87B002818D0002FF7D1307E102808D0C6
:10124000282806D0002804D0FF207AA1C53010F04D
:1012500002F80120E070E87BA070287C60700F200D
:1012600020700020A87371E00121204607F09AFB4E
:10127000002807D0307C002852D13946204607F09C
:1012800091FBF8BDA97C70480C3800906F480A3873
:10129000002913D00178052910D2002F56D1491CFE
:1012A0000170002666700D2020700120287506222E
:1012B000A01C00990FF050FEAE7447E06348002177
:1012C0000A380170B078002815D0002F3ED1307E4A
:1012D000002804D0412057A1C0000FF0BCFF00251A
:1012E00065700120584920700A22091DA01C0FF0CA
:1012F00033FEB5702AE03946204609F008FD002883
:1013000024D1A87C002805D0002F1FD14F480A38CF
:101310000178C4E7A87E002802D0307C002801D0E4
:101320000020F8BD002F11D1307E002803D041A14C
:1013300049480FF090FF002666700A20424920704D
:101340000622091FA01C0FF007FEAE760120F8BD93
:1013500010B53D48017E002908D1007C012805D048
:1013600001210020FFF743FF002801D0072010BD16
:10137000012010BD10B5012408F02CFA0443FFF73A
:10138000E7FF044307F0EEFA01462143084610BD8B
:10139000F8B50E4614461D4607F02DF9002807D073
:1013A000684607F033F9002803D0002C07D101E08C
:1013B0000120F8BD28481FA130300FF04CFF07F086
:1013C000D1F8A04204D213201AA140010FF043FF2C
:1013D000009806F036FD3146009806F044FDE2B272
:1013E0002946009806F0FBFE07F022F9002804D1F8
:1013F000194810A140300FF02EFF07F0B5FA14483D
:1014000000244030417B002905D044730021012293
:10141000084607F025FF0E488480C9E710B501791A
:1014200000291BD001291ED002A1F9200FF013FFC3
:10143000002010BD7372635C6C6C5F6374726C2E01
:1014400073302E6300000000C8020020200000203E
:1014500088010020150600002F020000831D42882D
:101460000488022103E042880488831D012120466C
:10147000FFF78EFFDDE7F8B504460D4616461F461A
:1014800007F0D7FE022803D0FE48007C00281FD0BA
:10149000FD484089208007F0D5F9002803D1FB4999
:1014A000FB480FF0D8FE0524684607F0D6F900285F
:1014B0000ED0009806F00FFD2870022809D00128F0
:1014C00007D007F00AFA641E2406240EECD100208F
:1014D000F8BD3946009806F09AFE3080002804D105
:1014E000EB48EA4912300FF0B6FE07F0F6F9002893
:1014F00004D15720E549C0000FF0ADFE0120F8BD32
:1015000038B50446831D821C6946FFF7B4FF0028E6
:101510000DD00020607168460078012808D00228AC
:1015200006D0FF20D9491B300FF095FE012038BDB1
:101530002071FBE700215AE670B5D24C0546403CCD
:101540002078002803D1CF48007E002804D00B204B
:10155000CE49C0010FF07FFE287807F01CFB2878E9
:1015600009F0AEFD00202071012060713921E17089
:10157000207070BD70B5C34D0446403D28780028EA
:1015800003D1C048007E002804D0AD20BF49C00070
:101590000FF061FEBC4E21887089884203D107F0AC
:1015A00048FE022807D002202871012068713821E6
:1015B000E970287070BD7F20F075B348E178203065
:1015C0004173A17801730020EEE770B5AD4C403C4B
:1015D0002078002807D1AB48007E002803D107F00F
:1015E00028FE032804D1AA48A84964300FF033FE2E
:1015F000A4480025203005712946401D07F0C2FA95
:101600000120257160713A21E170207070BD70B5C4
:101610009C4C0646403C2078002807D19948007E23
:10162000002803D107F005FE032804D19848974904
:1016300078300FF010FE934D2035287908280FD20E
:101640000001001965301022314600F087FD28792D
:10165000401CC1B22971681D07F094FA002000E017
:1016600007202071012060713B21E170207070BD66
:10167000F8B5844C0546403C2078002803D18148C9
:10168000007E002803D0814982480FF0E4FDA8784D
:10169000002801D0012804D1A888FF21F531884213
:1016A00004D91520794980010FF0D5FD764E29889F
:1016B0007089884203D107F0BCFD022807D00220C0
:1016C0002071012060713621E1702070F8BD6E48F4
:1016D000002720300772A98871850121B175A9788A
:1016E000012900D00021017267484030407B00286A
:1016F00004D000210122084607F0B2FD2771E0E77F
:1017000070B5604C0546403C2078002807D15D4804
:10171000007E002803D107F08CFD002804D05D482E
:101720005A4923380FF097FD287808F056F8002022
:101730002071012060713021E170207070BD70B5A2
:10174000504C0546403C2078002803D14D48007E8F
:10175000002804D04F484D4953300FF07CFD2878C5
:1017600000280BD0012809D0022807D0687840282B
:1017700004D3484845495A300FF06DFD284607F01C
:101780004FFD002801D0002000E00C202071012036
:1017900060713421E170207070BD70B5394C054620
:1017A000403C2078002807D13648007E002803D12D
:1017B00007F03FFD002804D03648344918380FF0B0
:1017C0004AFD2978002914D00A2912D0142910D0F2
:1017D0001E290ED028290CD032290AD04B2908D036
:1017E000642906D0FF2904D02A4828490C380FF074
:1017F00032FD284608F045F8002020710120607174
:101800003321E170207070BD70B51E4C0546403C20
:101810002078002803D11B4A107E002804D01D48E0
:101820001A4931380FF017FD062229461A480FF0E1
:1018300093FB00202071012060713221E170207043
:1018400070BD70B50F4C0546403C2078002803D190
:101850000C48007E002804D00E480C4945380FF093
:10186000FAFC0021695604291ED000291CD0081D4D
:101870001AD0001D18D0001D16D0001D14D0001D58
:1018800012D00BE0C80200208801002034140000B0
:101890009F0200003A05000019000020283103D003
:1018A000FD49FE480FF0D7FC00202856FEF7D3FF75
:1018B000012060713121E170207070BD10B5F84CCD
:1018C0002078002804D120464030007E002803D034
:1018D000F149F4480FF0BFFC06F044FEE08006F04A
:1018E00009FF207200202071012060710521E17044
:1018F00020709EE5F8B5EA4C07462034A07B2546CB
:101900002035002805D1287E002802D1A87800289B
:1019100004D0E248E0492E380FF09DFC07F089FC26
:101920001026022825D1E04839884089884220D1F4
:10193000DB49403908460A7D60388079002A03D0A7
:1019400080070FD40C200FE080070BD40620087509
:10195000D5484030407B002804D0002101220846B1
:1019600007F07EFC2E760020E07326740120A07321
:10197000F8BD0220F8E710B5C94C2078002804D142
:1019800020464030007E002804D0C448C249403878
:101990000FF061FC002020710E20A0700F20E0707D
:1019A000FF20A0710020C0432081C0480178A172AF
:1019B0008188A1814088E08101206071207038E534
:1019C00010B5B74C2078002804D120464030007E66
:1019D000002803D0B049B6480FF03DFC0821A01DF7
:1019E0000DF075F900202071012060712B21E1704C
:1019F00020701EE570B5AA4D04462878002804D151
:101A000028464030007E002804D0A448A249B030C7
:101A10000FF021FCA44810222146303800F09EFB34
:101A2000A1481022A118203800F098FB9E483038B9
:101A30000DF079FA9C49102210392C46A81D00F0AF
:101A40008DFB002020710E20A0702A20E070012064
:101A50006071207070BDF8B5914C05462034A07BB4
:101A600026462036002802D1307E002804D0904837
:101A70008949C6300FF0EFFBA978052912D0132948
:101A800010D014290ED015290CD01A290AD02929D2
:101A900008D03D2906D03B2904D085487E49CE3068
:101AA0000FF0D9FB28888349884204D97B487A49BA
:101AB000D1380FF0D0FB07F0BCFB0C2128270228FF
:101AC00009D179482A884089904218D17448403811
:101AD000027C002A01D0E17313E0A978417401214E
:101AE000017437760020E0736F484030407B002857
:101AF00007D000210122084607F0B2FB01E00220D6
:101B0000E07327740120A073F8BD70B5644C0646DD
:101B1000207825464035002802D1287E002804D0B0
:101B200063485D49B4300FF096FB5D4806223146AC
:101B300059300FF011FA0120E8770021217160710E
:101B40001721E170207070BD70B5554D044628789E
:101B5000002804D128464030007E002804D0544894
:101B60004D4915380FF077FB2078002806D0012862
:101B700004D04F48484914380FF06DFB2178601CA1
:101B8000FEF71CFE002801D0002000E0072028718D
:101B9000012068710B21E970287070BD10B5404CB0
:101BA0002078002804D120464030007E002804D050
:101BB0003F48394921380FF04EFBFEF752FD002017
:101BC0002071012060710A21E170207031E410B5AC
:101BD00007F0B8FD002804D035482F4974380FF0BD
:101BE0003AFB06F0BDFE06F0A0FC09F00EF9002855
:101BF00004D02F48284966380FF02DFB06F0FFFE71
:101C0000002804D02A48244962380FF024FBFEF74C
:101C100028FDFFF728FA22480021017101214171B6
:101C20000222C270017004E470B51D4D044628788C
:101C3000002804D128464030007E002804D01C48EB
:101C4000154950300FF007FB20781F2801D8601C81
:101C500004D11D20104940010FF0FDFA0020287129
:101C60002078611C06F07DFF012068712021E97059
:101C7000287070BDF8B50A4C0546207826464036D7
:101C800000281DD1307E00281AD107F0D2FA002892
:101C900013D1307C00280FE034140000F70400005A
:101CA000880200205D06000088010020200000203E
:101CB0004F030000FF0E000006D0287800280DD04A
:101CC000F649F7480FF0C7FA2878012806D000280F
:101CD00004D0F348F149401D0FF0BDFA01206071B6
:101CE00028780027EF4D01280BD0002007F013FDC6
:101CF00000284ED00C2020711B20E07001202070A5
:101D0000F8BD0C20207106F0B5FE0028F4D0E5489F
:101D100002210A300CF064FF002806D00F216889E8
:101D200009020FF093F9698100E06F81012203211C
:101D3000DC4806F095FA002805D0D948D74931305B
:101D40000FF089FAD8E7D74806F0F6FF688906F061
:101D50000BFC002804D1F320D04980000FF07BFA5F
:101D60006889002106F004FE002804D03D20CB49FC
:101D700000010FF070FACC488178008807F031FD3F
:101D8000002804D0F520C54980000FF064FA2771BF
:101D9000B2E72771307C0028AED16889FFF744F99B
:101DA000AAE770B5C04D0446603D2878002804D1EC
:101DB00028464030007E002804D0B948B7491C3876
:101DC0000FF049FA20781F2801D8601C04D1B448CC
:101DD000B2491B380FF03FFA002028712078611CAF
:101DE00006F0DDFE012068711A21E970287070BDCF
:101DF000F8B5AD4D0C260446603D28782F46403797
:101E0000002806D1387E002803D107F012FA0328F3
:101E100004D1A348A14952380FF01DFA6079002877
:101E200001D001282FD1A079002801D001282AD182
:101E3000A07B002805D0012803D0022801D0032868
:101E400021D1607B40071ED0618801208003814240
:101E500002D82288824201D920790CE0207900281A
:101E600004D0022805D0032803D004E0202904D29E
:101E700009E0A02A01D2012805D12088884207D98B
:101E80002079012804D08648844940380FF0E3F9CE
:101E9000854821880180217981706079002802D0ED
:101EA000012803D00CE0814A002105E0F87F0028DA
:101EB00006D07D4AD21F0121204606F0DFFD0646EE
:101EC00001202E7168711821E9702870F8BD70B575
:101ED000754C0546603C2078002804D120464030EF
:101EE000007E002804D06E486C49DF300FF0B3F953
:101EF00007F09FF90C2102280ED16A482A884389ED
:101F00009A4219D10246C032137D002B04D1007EC3
:101F10000E2803D00F2801D0217103E00520107591
:101F2000002020710E20A0702E20E0702888E08014
:101F300001206071207070BD0220F2E770B55A4C2C
:101F40000546603C2078002804D120464030007EC1
:101F5000002804D02320514940010FF07CF907F0FC
:101F600068F90C2102280ED14E482A8843899A42EA
:101F70001FD10646C036327D002A04D1007E0E28CD
:101F800003D00F2801D0217109E047481022A91C75
:101F90007E380EF0E1FF04203075002020710E2005
:101FA000A0702D20E0702888E080012060712070F2
:101FB00070BD0220F2E710B501782B295CD020DC3F
:101FC00017294DD00EDC0B2946D006DC02293DD066
:101FD00005295BD00A2960D13BE00F294FD0102999
:101FE0005BD14FE020292DD006DC18291ED01A29FC
:101FF00020D01B2951D121E0282935D02A297BD195
:1020000036E02D390B000FF026FA0F090D775F44EB
:1020100053575B7763776E726B677700801CFFF7AF
:102020008DFF67E0801CFFF752FF63E0801CFFF725
:10203000DFFE5FE0801CFFF7B4FE5BE0801CFFF773
:1020400019FE57E0801CFFF7EFFD53E0FFF7BFFDDF
:1020500050E0FFF7A3FD4DE0801CFFF775FD49E060
:10206000801CFFF752FD45E0801CFFF7F4FC41E0C7
:10207000801CFFF7BFFC3DE0FFF7A2FC3AE0FFF752
:102080007AFC37E0801CFFF735FC33E0FFF716FCE5
:1020900030E0801CFFF7D5FB2CE02DE0341400006D
:1020A000AD03000088010020E80200201900002094
:1020B000801CFFF7A9FB1DE0801CFFF76EFB19E0F9
:1020C000801CFFF73CFB15E0801CFFF719FB11E0BB
:1020D000801CFFF7CDFA0DE0801CFFF798FA09E0AD
:1020E000FFF773FA06E0801CFFF744FA02E0801C59
:1020F000FFF722FA012062E4002060E410B51E49D7
:102100001E480FF0A8F85AE410B51D4C0123E11D3C
:10211000F9310A46403200281DD0032804D0042893
:1021200019D01549174813E001220021144806F080
:1021300097F8002809D112480021C0300175417577
:10214000C03807F0F3FC002804D00E480A493338A1
:102150000FF081F833E413744C6530E430B5134666
:1021600006E0CC18203CD51AE47F5B1E4455DBB258
:10217000002BF6D130BD000034140000B90500007A
:1021800088010020C206000010B503000FF063F9BB
:10219000070805080B0B0E0E110003F0C6FD10BD5D
:1021A00001F0E8FD10BD0AF0B3FB10BD0CF008FA19
:1021B00010BDFF20FDA177300FF04DF810BD7FB5A9
:1021C000FE4AFF4D51689268019200912870FD48C7
:1021D0000CF0B3FF0024FC480CF0B6FF641CE4B222
:1021E000072CF8D3F7490320803140020AF0E2FBC4
:1021F000002803D0EDA18D200FF02DF81E22022122
:10220000F24809F015FAF1481E220321103009F0B6
:102210000EFEEE4807223421743009F069F9EB48CC
:102220004C2128300EF0F7FEE8496A467431084622
:102230004C384164FF317B3181640121117203907C
:1022400001F046FF02A80AF0CBFE002803D0D7A178
:10225000A1200FF000F802222421DD4809F048F9FE
:10226000DB4802222C214C3009F042F9D8490620E3
:1022700060390CF08FFA002803D0CCA1AE200EF00C
:10228000EAFF03F03FFD02F0DCFF04F0ABFA6B461F
:10229000D04A0821D0A001F07BFE002803D0C3A1C2
:1022A000B5200EF0D8FF012004F041FD002803D036
:1022B000BEA1B7200EF0CFFF7921C900C9480EF0AA
:1022C000AAFEC849BD4A0020135C0C18401CC0B2CD
:1022D000E3700428F8D30020686068707FBD70B593
:1022E000C14E0546706A94B00C46401C04D1B06AD9
:1022F000C0430004000C0BD0306AC007C00F287028
:10230000706A0EF09BFEB06A2071000A607113E0E3
:102310002B206946087009A9684609F029F90028A8
:1023200003D0A2A1DA200EF096FF01202870062229
:102330000AA920460EF010FE2878002815D06079F2
:10234000C0210843607117206946087000A8062262
:10235000214602300EF000FE09A9684609F008F98E
:10236000002815D091A1EF2010E0322069460870B6
:1023700000A80622214602300EF0EEFD09A96846AB
:1023800009F0F6F8002803D088A1FB200EF063FFC7
:1023900014B070BDF0B5944C0646206895B00D465B
:1023A0003746401C0837002808D16068401C05D11A
:1023B000A068401C02D1E068401C11D02068314662
:1023C0000EF03CFE6068311D0EF038FEA068394604
:1023D0000EF034FEE06831460C310EF02FFE25E0A1
:1023E0002B206946087009A9684609F0C1F8002841
:1023F00004D0FF206DA11B300EF02DFF08220AA98A
:1024000030460EF0A9FD2B206946087009A96846E0
:1024100009F0AEF8002804D0FF2064A122300EF0AD
:102420001AFF08220AA938460EF096FD20692E46AA
:10243000401C0836002808D16069401C05D1A069FD
:10244000401C02D1E069401C12D0206929460EF0E0
:10245000F5FD6069291D0EF0F1FDA06931460EF011
:10246000EDFDE06929460C310EF0E8FD15B0F0BD38
:102470002B246846047009A909F07AF8002804D0D2
:10248000FF204AA140300EF0E6FE082209AF0AA95B
:1024900028460EF061FD6846047009A909F068F845
:1024A000002804D0FF2041A147300EF0D4FE0822BE
:1024B000391D30460EF050FDD8E710B500200CF065
:1024C000CBFE01200CF0C8FE02200CF0C5FE03205C
:1024D0000CF0C2FE04200CF0BFFE05200CF0BCFE88
:1024E00010BD10B53F4CA0780A2804D3FF202FA1BF
:1024F00090300EF0B0FE207860214843001908307B
:10250000002101704178E722C908C900C91C1140A7
:1025100041702B4A0121517010BD70B5284C607874
:1025200000280ED02F4800250178491CC9B201703F
:102530000A2900D105708178491C81700CF005FFD3
:10254000657070BD70B51E4C05466068002804D0EB
:10255000FF2016A1B9300EF07EFE656070BD70B52B
:10256000174E204DFFF7BDFF71680446002907D0C4
:102570006022FDF725FEFFF7D0FF00207060F1E735
:102580002879002876D012484C3008F0C1FF6060EE
:10259000002804D1FF2005A1D7300EF05CFE606852
:1025A00009F00EF8002831D020461FE07372635CFA
:1025B000686F73745F636F72652E63007814010037
:1025C000280000207003002089210000F00900206D
:1025D00020100020341200006E524635313832325D
:1025E00000000000F80B00208000001000F0E6FE64
:1025F0006078010707D5C008C000401C60702879CA
:10260000401E287127E0C64861682AE0C448616816
:1026100008F087FF687900282CD0C1484C3808F0B2
:1026200077FF6060002804D1FF20BE49FA300EF029
:1026300012FE606808F0C8FF002816D0204603F09C
:10264000B3FB6078010709D5C008C000801C60702A
:102650006879401E6871FFF760FF83E7B0486168E2
:102660004C3808F05EFF7DE704E0AD4861684C3807
:1026700008F057FF70BD10B50C4611461A460023EE
:10268000138001280BD002280DD0032813D0042872
:102690000DD0A449A4480EF0DEFD032010BD204655
:1026A00003F04EFB10BD204601F00DF910BD204691
:1026B00003F0EAFF10BD204602F0E3FD10BD014625
:1026C000974810B54C3808F02CFF98494879401CC1
:1026D000C0B24871012803D19548007800F012FB80
:1026E00010BDF8B50546072040070F460A1801211E
:1026F00089038A4209D2002D02D02818884204D2C8
:10270000E81C80088000A84201D01020F8BD87484E
:102710008178002911D03988009141786022514395
:102720000C18083420783B460007000F0022214691
:10273000FFF7A1FF060004D015E000203880052037
:10274000F8BD002D13D039880098814201D90C269C
:102750000DE020783B460007000F2A462146FFF790
:102760008AFF060005D00C2E01D0002038803046AC
:10277000F8BD6E4D6878401CC0B268700A2801D15F
:1027800000206870A878401EA87060784107490F43
:10279000022910D00129EAD16148616808F0C1FE20
:1027A0002879401CC0B228710128E0D16048007827
:1027B00000F0A8FADBE7C006D9D46068FFF77FFF16
:1027C000D5E707214907012241189203914201D31D
:1027D000102070470721017000207047052210B5B6
:1027E000920390420ED301239B04C21A514B9A428A
:1027F00008D3514B984205D2072252078A18DB139F
:102800009A4201D3102010BD0BF0DDFF10BD05234F
:1028100010B59B0399420ED301239B04454CCB1A60
:10282000A34208D3444B994205D2E3020124D318B2
:10283000A403A34201D3102010BD022803D0102806
:1028400001D0092010BD0BF0DDFF0028FAD00520D3
:1028500010BD70B505239B03984213D301239B043D
:10286000344CC31AA3420DD3334B98420AD2E3022D
:102870000124CD18A403A54204D2002A04D0D31801
:10288000A34201D3102070BD0BF0F8FF0028FAD04E
:10289000072070BD10B5044607204007012120180D
:1028A000890394B0884202D3102014B010BD01F007
:1028B0005BFC002801D01120F7E70F2008A908735E
:1028C00069460BA808F054FE0028EED16846007A4D
:1028D000207068464089608068468089A08000201A
:1028E000E3E710B594B0044601F03EFC002801D0A7
:1028F0001120DAE7002C01D00720D6E739216846FD
:1029000001700021817009A908F032FE002804D06E
:1029100005480449E7300EF09EFC0020C5E70000A2
:102920006C100020AC2500002B020000F80B0020EA
:10293000280000200000FC1F0040002010B5503887
:1029400003000EF088FD0604090D121A212505C9A1
:102950001146FFF7C6FE10BD0868FFF732FF10BD35
:1029600005C91146FFF73AFF10BD08684B688A6831
:10297000C0B21946FFF74BFF10BD4B688A68086864
:102980001946FFF766FF10BD0868FFF783FF10BD0B
:10299000012010BD10B55C2801D0012010BD0868D1
:1029A000C0B2FFF79EFF10BD10B5EFF31080C40753
:1029B000E40F72B6AE484178491C41704078012856
:1029C00001D10CF0E7FC002C00D162B610BD70B54F
:1029D000A74CA07800280AD10125A570FFF7E4FFD5
:1029E0000CF0E0FC002804D000200CF0B3FC002028
:1029F00070BDA04825714560F9E770B5EFF3108010
:102A0000C507ED0F72B69A4C6078002803D19AA1E1
:102A100083200EF020FC6078401E607060780028F3
:102A200001D10CF0BBFC002D00D162B670BD10B519
:102A30008F488178002904D0002101718170FFF74F
:102A4000DCFF002010BD10B504460CF0ABFC88493B
:102A50008978084000D001202060002010BD10B50A
:102A60000CF0A6FC002805D0814801218170417836
:102A7000491C417010BDF8B5834CA06800260128A0
:102A800002D1A6600CF066FC6068012800D1666087
:102A900020680125764F012813D126603879002857
:102AA00003D000200CF056FC3E713878002808D086
:102AB0007648C068C00704D07348C03885630006F4
:102AC00005612069012812D1266100F095F80120E6
:102AD00080074561FFF768FF6C48C068C00705D0F4
:102AE0006948C03885630006056100E03D70E06814
:102AF000012810D100F080F800F07EF800F07CF89A
:102B0000E6603E70FFF779FF0BF0B0FF002802D0BF
:102B10005D48C038C563F8BDF8B5014600273C469E
:102B20005348022510260B000EF095FC0705080BF4
:102B30000F1215171F000124C5701BE0012404218A
:102B400001E001240821C17014E00124C67011E0E5
:102B500001242021F7E701270CE0FFF725FF0CF007
:102B600021FC0028FBD0022704E0FF2042A13E30D8
:102B70000EF071FB0CF022FC002809D00CF024FCB4
:102B8000B84205D138460CF022FC0028FAD020E0EB
:102B900001208207D0603C4900234B603C4B9F6181
:102BA000344F7D6090603B4802690369D243D2068E
:102BB000D217521C3343036100E020BF4B68002B47
:102BC000FBD0002A02D10269B2430261BD6000203D
:102BD0004860002C01D000F016F8F8BD10B524486C
:102BE0008078002801D10CF0D9FB01208107886191
:102BF0002049801E886010BD50210846491E89B2B8
:102C00000028FAD17047F8B500271A4919208860C2
:102C10001D4C3D462760E76027610CF0C3FB002890
:102C20000BD10CF0C5FB002802D10127FFF7BCFE39
:102C30000CF0B8FB0028FBD025600126B007066128
:102C4000E0680028FCD0E560002F01D0FFF7D5FE3A
:102C500008491920486006480D49C0788863FFF785
:102C6000CBFF0124A407A661FFF7C6FF6661F8BD8C
:102C700030000020000300407372635C736F635F79
:102C8000636C6F636B2E6300000100400004004022
:102C90000005004000ED00E001203E4940060860CC
:102CA0003D4908603D490A68FF231B029A4383128D
:102CB0001A430A60374980390860704710B50246E8
:102CC0000420374904E0C3005B181B79002B0AD0AD
:102CD0000346401EC0B2002BF5D132A143200EF0B6
:102CE000BAFAFF2010BDC300CA50002259184A7119
:102CF0008A7101220A7110BD294A0021C000801882
:102D00000171704710B50446042803D325A1522051
:102D10000EF0A1FA2248E1000C182079012803D016
:102D200020A153200EF097FA6079A179401CC0B21F
:102D3000814200D060710120164940068031086050
:102D400010BD70B515480068800B022803D015A18E
:102D500069200EF080FA124D184C03262078C1002D
:102D600048190279012A07D1427983799A4203D01E
:102D700042798271685880472078401CC0B2207028
:102D8000042801D3002020703046761EF6B20028B9
:102D9000E4D170BD80E100E080E200E018E400E0F2
:102DA000C81000207372635C736F635F7369676E32
:102DB000616C6C696E672E630000000035000020B6
:102DC0008107C90E002808DA0007000F08388008BC
:102DD0002C4A80008018C06904E080082A4A8000DC
:102DE00080180068C8408009704710B50D20FFF7B3
:102DF000E7FFC4B20420C043FFF7E2FFC0B2844241
:102E000003D022A119200EF026FA10BD0121244A78
:102E100048031060234B00221A60234A5160234A62
:102E20001060234A11601E498039086070470121F3
:102E30001B4A480310601E4A51601A4A0021116063
:102E40001A490860704710B516490868012804D06F
:102E50000EA155200EF0FFF910BD16488068002223
:102E6000C0B20A600BF059FF10BD10B50D480168E3
:102E70000029FCD0FFF7E7FF01200C494003086060
:102E800010BD000000ED00E000E400E07372635C40
:102E9000736F635F68616C5F726E672E6300000022
:102EA00080E100E000D1004000D3004080E200E07B
:102EB00000D0004000D5004070B5FFF7EDFE75482A
:102EC000FFF7FCFE744908707448FFF7F7FE72497B
:102ED000734B48700120C102196002061A60714BE1
:102EE0001C682402240A1C606F4C256800232D0AEC
:102EF0002D0225606D4C6060A0606D4D2B606B6095
:102F0000AB606C4B19601A606B4B19601A602060E3
:102F100070BD10B5604C2078FFF7EEFE6078FFF7CB
:102F2000EBFE01205E49C2020A6003060B605F49A6
:102F3000486088605E4900200860486088605D489D
:102F40000260036010BD01205A49C002086070474A
:102F500010B50446012803D958A15A200EF07BF978
:102F60005349A000401810BD10B50446022803D9EB
:102F700052A16C200EF06FF92146103101208840DB
:102F80005549886055498860554A0020A1008A1833
:102F90001060474A8918086010BDF7B50446174607
:102FA000022803D945A178200EF055F9404AA10026
:102FB0008E184B4A01208D181034A0400446012F72
:102FC0000FD0002F03D03DA18B200EF044F94248D2
:102FD000846000203060414844600198286003B05C
:102FE000F0BD002030603C4844603C48446001989B
:102FF000286003B0F0BD3B484068704770B52C4D69
:1030000028680026344C012809D1A068C00306D5E1
:1030100001200004A0602E6000200CF049FE6868CA
:10302000012809D1A068800306D501204004A060D2
:103030006E6001200CF03CFEA86801280AD1A0684F
:10304000400307D501208004A060AE6012480078DC
:10305000FFF758FE70BD0120234900060860704745
:103060000120144900060860704701201E494005F0
:103070000860704701200F4940050860704710B58F
:1030800005484078FFF73EFE10BD10B50CF013FF69
:1030900010BD0000D7030100360000200DFE000027
:1030A00080E100E008E400E018E400E000B0004047
:1030B00040B1004080E200E000E100E07372635C38
:1030C00072656D5F68616C5F6576656E745F74696B
:1030D0006D65722E6300000000B3004040B30040F5
:1030E00040B5004000B5004000E200E070B5FF4D83
:1030F000044629680300A0310EF0ADF908053E082A
:10310000080E1D2C3242FAA1D42033E0887F01281A
:1031100032D0F7A1DA202DE001F052FE05282BD0A5
:1031200001F04EFE062827D001F04AFE072823D0E2
:10313000EFA1DD201EE001F043FE03281CD001F0CA
:103140003FFE062818D001F03BFE072814D0E8A166
:10315000E2200FE0887F05280ED0E5A1E72009E0F6
:1031600001F02EFE052807D001F02AFE062803D024
:10317000DFA1EA200EF06FF82868A030847770BDD8
:10318000DBA1EE20F6E7D949C1220968525CD206DC
:10319000920F05D1A0318A8A824201D1887D704781
:1031A0000020704770B50446112020700021CF4DDB
:1031B00061702968C0318978002908D003290ED0B0
:1031C000042910D0FF20CAA118300EF044F820784E
:1031D0000009012802D92868807E607070BD000750
:1031E000000F203002E00007000F30302070EEE7C3
:1031F00030B50388C249C34C8B4202D09A1FA24209
:103200001ED242888A4202D0951FA54218D293420C
:1032100016D883887D24E400A34211D8C088884250
:1032200005D0B84D04460A3C2D1FAC4208D2884256
:1032300008D08A4206D05B1C5A43C000824201DD9E
:10324000072030BD002030BDFFB50022099B0028BB
:1032500002D0994205DC5CE0002902D1002004B0D4
:10326000F0BD0920FBE7845C002C12D0861877782B
:103270000D2F4CD010DC3B000EF0EDF80A421B2A5B
:103280002A303032323A3A42835C002B3FD1521C12
:10329000D2B28A42F8DBE1E7122F31D004DC0E2FE4
:1032A00035D00F2F2CD132E0142F11D0152F27D16C
:1032B00016E0022CD5D1B378039C072B237001D2E2
:1032C0005B0701D40A20CAE7029B01241B7814E0A3
:1032D000E343DB0708E0012C08D011E00620BEE73D
:1032E0000F26230736079B19002BF4D02846B6E794
:1032F000029B1B789C070AD402242343029C237060
:10330000835C521C9A18D2B28A4204DDA9E70B20D2
:10331000A5E719256D028A42A5DB9FE705E0027843
:10332000401C002A01D0002070470A46491E89B27D
:10333000002AF4D10120704730B56C4C0021206880
:1033400087B0C943A03081820025857506200BF027
:1033500083FF05200BF080FF02200BF07DFF012092
:10336000FFF7C4FE20686946A030C57701200870C9
:10337000684609F056FE07B030BD10B55B4A94B000
:103380001268A032927F042A0AD028236A4613705A
:103390005080132906D03B2904D0072014B010BD5B
:1033A0000820FBE71171104609A908F0E1F80400B4
:1033B00002D10420FFF79AFE2046EFE7F0B59BB05C
:1033C000040003D14AA150480DF045FF622020704F
:1033D0006068002701780826491F444D0B000EF055
:1033E0003AF80F096DCCFB6D6FF9F8AB6D6D6D6D33
:1033F000F7F66D002868A030807F032804D097205E
:103400003BA180000DF027FF00200BF025FF607826
:1034100010233043607028680146C0314A781A434F
:103420004A7061688A783C2A45D08E88014601221C
:10343000A0318A756268D2890A836268128A4A83D7
:103440006268528A8A838E8261680622C979C17352
:103450006168103008310DF07FFD0520FFF746FE52
:103460002868C2210F54017FFB2211400177B0214F
:1034700009584A7A920892004A72C782304602F08E
:103480004DFC002804D0204819A122300DF0E3FEA5
:10349000304601F0E4FE002804D04F2014A1C00003
:1034A0000DF0D9FE304603F0A4F9002806D01648E6
:1034B0000FA1273024E10120FFF718FE1BB0F0BD5B
:1034C000878801F07DFC052822D001F079FC0628D0
:1034D0001ED001F075FC07281AD001F071FC0428F9
:1034E00016D0094802A1333010E000003800002057
:1034F0007372635C6761705F636F72652E63000057
:10350000FFFF00007B0C0000530200000DF0A3FE43
:103510006078304360702868C03041783143417032
:10352000FFF70AFF384602F0FEFB384601F09DFE29
:10353000384603F082F9C1E701F042FC05280FD0BC
:1035400001F03EFC06280BD001F03AFC072807D01A
:1035500001F036FC042803D0FD49FE480DF07BFE47
:103560006068C088C0B202F095FC0028A6D06178DF
:10357000314361706168C880A0E701F021FC052833
:1035800010D001F01DFC06280CD001F019FC072812
:1035900008D001F015FC042804D05520EC49C000E7
:1035A0000DF059FE6078304360706068C18828680B
:1035B000A0300183616809894183616849898183F9
:1035C00002200BF049FE2868A030C77776E70BE1B0
:1035D00066E16FE070E0FFE701F0F2FB052810D034
:1035E00001F0EEFB06280CD001F0EAFB072808D01A
:1035F00001F0E6FB042804D0D648D54922300DF06E
:103600002AFE2868BE21095C042994D0C08A40069D
:103610003CD5606802210C30FFF780FE002835D0D1
:1036200060680821001DFFF779FE00282ED0286869
:10363000014680310A6B527A920708D1C222125C8D
:10364000002A08D1C28AD30505D5D20703D1C38A7F
:1036500040229343C382C38A80229343C3822D2393
:103660006A461370A030808A5080CB698A694869A5
:10367000096A01AC0DC4049109A9684607F078FFF6
:103680000028A3D0B348B249443039E062682868C2
:10369000A42192890A5261680822091DA6300DF002
:1036A0005BFC10A806742868A630159014A809F0D1
:1036B000B8FC03E70121817101F082FB052810D0DD
:1036C00001F07EFB06280CD001F07AFB072808D019
:1036D00001F076FB042804D09E489D4968300DF027
:1036E000BAFD2868BE21095C0429E2D061688A79A4
:1036F000002A02D08978002905D096489449CE3016
:103700000DF0A9FDDAE6617831436170B021095806
:10371000497A8907890F01294DD1C18A09064AD4FE
:10372000017F490701D5042100E00321C0308170E9
:103730002B206946087009A9684607F019FF002880
:1037400004D08448824984300DF085FD694628689C
:10375000098D01830E2210A90A747F491591027AFE
:103760000A70024609324A600F320A61521D8A60AD
:103770001032CA60133A4A618A328A61921CCA6165
:10378000423A0A6210324A6210328A62403A8A63CE
:10379000D21FCA63521C54300A64486414A80AF049
:1037A000CFFD022814D0002812D06A486849AC30F6
:1037B0000DF051FD0CE0C18A4906017F490701D592
:1037C000042100E00321C030817006200BF044FD8D
:1037D0002868C18A0A0602D440229143C1828AB273
:1037E00080218A43C28269E62868A030807F03284E
:1037F00004D058485649DA300DF02DFD00200BF06A
:103800002BFD607810233043607028680146C0317A
:103810004A781A434A7061688A783C2A00D14AE69D
:103820008E8801460122A0318A756268D2890A8396
:103830006268128A4A836268528A8A838E826168C9
:103840000622C979C1736168103008310DF084FB1C
:103850000520FFF74BFC2868C2210F54017FFB2293
:1038600011400177C782304602F058FA002804D090
:10387000E320374980000DF0EEFC304601F0EFFC0C
:10388000002804D033483249F6300DF0E4FC3046CD
:1038900002F0AFFF0028A6D02E482D49F8302FE7C0
:1038A00060783043607009E600290BD088802B488F
:1038B0000068A030028BCA80028B0A81428B4A8149
:1038C000808B88817047F7B5064600780C46002744
:1038D000010982B03D46012973D02048006800905C
:1038E000C03002296ED0062904D009296BD01849AE
:1038F0001B48D4E171680A78521F13000DF0ABFD2C
:103900000F09B95AB9B939646451B9B9B9B96E78FE
:10391000B9008A783C2A25D010271625002C7DD0A6
:103920008888A0807068A21DC08920827068C089C4
:10393000E0817068008A60827068408AA082716845
:1039400008460831C07901F040FA002060737EE03B
:10395000F0340000990200004811002038000020D7
:103960001205000019270725002CD8D00021A171CD
:1039700070E011270E25002CD1D089880091A180FC
:103980007168F7228979617341781140417000981C
:1039900002F0CAF9009801F06CFC009802F056FFA2
:1039A000A6E101270725002CB9D08888A08070687F
:1039B000C0881BE0888812270E252146FFF774FF78
:1039C00096E159E091E171E018270825002CA6D076
:1039D0008888A080A01DFFF7E5FB89E11A2707254D
:1039E000002C9CD04888A08070680079A0717FE18D
:1039F0008A783C2A32D010271625002C8FD0888850
:103A0000A0807068C08920827068C089E081706879
:103A1000008A60827068408AA08200E07DE171685F
:103A2000607B497D4008C9074000C90F08436073A7
:103A30007168C007497DC00F490849000843607399
:103A40007168A21D08460831C07901F0BEF9FA4834
:103A50000068C0304178EF2211402FE11927072577
:103A6000002C89D00021A1714278EF210A404270D8
:103A70003EE1F249F24812E1307A012803D0F048E1
:103A8000EE4917300BE112270E2570892146FFF70A
:103A90000BFF002C88D070784007400F03288FD18F
:103AA000E5480068C0304178FB22D5E7E249096863
:103AB000A031002C01D08A8AA280327A921E130093
:103AC0000DF0C9FC073B4651F0DB6B05F0001327F6
:103AD0000C25002C85D0F16889788907890F012988
:103AE000217A27D0490849002172FD221140F2684D
:103AF000E32392785207D20F520011432172002221
:103B0000E2801940F3681B785B07DB0E19432172D2
:103B1000DF231940F3685B78DB079B0E19432172A2
:103B20006272F1680122C978A17201781143F7220B
:103B3000114016E001221143D6E715270C25002C71
:103B40008FD0F06806220068A11D0CF0B3FCCFE016
:103B500016270725002C84D0317BA171017808221B
:103B600019E00170C4E014271225002C92D00098AF
:103B70000099C07BA21D103101F027F9B089E081C6
:103B8000207C01210843F92108402074AA480068DC
:103B9000C030017802221143E3E717273825002CB3
:103BA00098D03221A01D0DF034FA0020A071207AA7
:103BB00003210843A04A20721168FB260B7F304086
:103BC0005B07DB0F9B0018432072B0204058407AFF
:103BD000800751D0A07ACA8A4008D2074000D20F8D
:103BE0001043FD221040A072CB8A30409B07DB0FB0
:103BF0009B00184308231843EF231840A072CA8A79
:103C0000E07AD206D20F304092001043E072F722E1
:103C10001040CA8AD206D20FD2001043E072088B3D
:103C2000A0812046102264310E300DF095F98249B2
:103C3000A07F0968C0078A7EC00F52001043A0779A
:103C40000A7F400852074000D20F1043A077084671
:103C500044304DC820344DC4303C3D20405C2246A9
:103C600030323E3101F0B1F8734800688030006BAB
:103C7000417A8908890041723AE0327B022A12D0E7
:103C800017273825002C48D0012A19D0032A19D02B
:103C9000042A1AD0052A18D069486849B1300DF0B5
:103CA000DAFA25E01DE019270725002C35D0898A8E
:103CB000A1800121A171417849084900417017E0B4
:103CC000012000E00220A07106E0707B0007000FD9
:103CD0008030A071052A02D00020E07108E00120A8
:103CE000FBE757485549BB30D9E7317A002908D05E
:103CF0000498002C058001D027806580002005B045
:103D0000F0BD19270725002C07D00021C943A18049
:103D10000021A1714178FD229EE604980580EDE71F
:103D200000B595B001F04CF8022803D001F048F836
:103D3000032818D11B2108A801730021817369464B
:103D40000BA807F015FC002804D1684640781B2812
:103D500002D0032015B000BD00200BF07DFA6846AC
:103D60008078002801D00820F4E70120FFF7BEF991
:103D70000020EFE770B500252F4C002806D0022860
:103D800016D02E492F480DF066FA70BDFFF7C8FF18
:103D90000028FAD1FEF7A5FB222101700572FEF77B
:103DA000BCFB2068C030417802221143417070BDD5
:103DB000FEF797FB12210170012101722168A031E9
:103DC0008A8A4281CD77FEF7A8FB2068C03041780F
:103DD0000422EAE770B504000D4604D119481749DA
:103DE00008300DF038FA2078012805D0154813491D
:103DF00026300DF030FA70BDA18813480E4E814276
:103E000009D1E288824206D130681321A030808A2D
:103E1000FFF7B3FA70BD814202D1E088002815D0C7
:103E200012202870687808210843687007CC08358C
:103E300007C5002110E0000038000020F034000029
:103E40003E04000049050000FFFF00007822002129
:103E500002200BF084F902213068A030C17770BDD8
:103E6000F7480068C0308078704738B5F44C054694
:103E7000017820680B00A0300DF0EDFA09863506B8
:103E8000067113365A758600807F052803D0ED49E8
:103E9000ED480DF0E0F920680422017F114301771D
:103EA0005DE0A98800291ED0808AE84988421AD09E
:103EB000A868002804D1E448E2490F300DF0CBF99E
:103EC000A86806220A38A86000902068AB88A03055
:103ED000808A042101F058FE002804D0DA48D9492C
:103EE00014300DF0B8F938BD2979807F02290BD044
:103EF0000428F8D0284600F079FF20681321A0306C
:103F0000808AFFF73AFA38BD062804D0CE48CD495A
:103F10001E300DF0A0F9284600F068FF206801224D
:103F2000C0304178114341700520FFF7DFF838BDFC
:103F300000F046FF052808D000F042FF042804D016
:103F4000C148C0493C300DF086F90ECDC048036130
:103F5000C260816092210170FEF7F4FA38BD2846F4
:103F600000F044FF38BD00F02BFF052808D000F01A
:103F700027FF062804D0B448B2494D300DF06BF944
:103F80000720FFF7B3F8EAE7AF48AE495630A8E795
:103F9000FFB593B00124684603218470C9021D4611
:103FA000018008F04EFD00226946012002F075FEF6
:103FB000064608F04AFD002E5CD168461521847043
:103FC0004902018000271C2101A808970DF023F861
:103FD00001200146103108A801700020014608A800
:103FE00041708178F9200140891C214308A8817023
:103FF0006846017902263143017114998185C7858C
:104000001421018608A80A9013980D90684609901B
:1040100008F017FD0EAA09A901A802F026FC074620
:1040200008F013FD002F02D0384617B0F0BD844FC2
:1040300068463968008F48806846847085490180E9
:1040400008A88078F9210840801C4108490008A888
:10405000817068468685068615A80D9008F0F1FCEB
:104060000EAA09A901A802F000FC064608F0EDFC22
:10407000002E01D03046D8E768463968008F888026
:10408000744968468470C91C0180298810A8018081
:1040900069884180A9888180E988C18008216846B3
:1040A0008185018610A80D9008F0CBFC0EAA09A905
:1040B00001A802F0DAFB044608F0C7FC002C01D08E
:1040C0002046B2E768463968008FC8800020ACE718
:1040D00070B504465E48C421A8300CF09CFF5C48D3
:1040E000574DA83000212860C943A03081820026A6
:1040F00086750120FEF7FAFF2868BF210E5401469D
:1041000009310830FEF7EBF8296808462D311D30DB
:10411000FEF740F9002C26D02868B0210C501E2153
:10412000A181217A8F22114010312172014618316C
:10413000216109396161491CA1610839E161491CAA
:1041400021629B31616287392160103161601339CE
:10415000E162091F21637E312164303961631031CE
:104160008430A163E06370BD35480068A030807F73
:10417000042801D0002070470120704730B5044664
:104180000520800395B0844208D301208004324981
:10419000201A884202D33148844202D3102015B03D
:1041A00030BD27490868A030807F012801D0082051
:1041B000F5E7FFF7D9FF002801D01120EFE70D68E0
:1041C000012028722278002A08D025491720012AC8
:1041D0000AD0022A1FD0032A25D121E032206946C5
:1041E00008700020287205E0A2799209032A1AD1EA
:1041F0006946087000A80622611C02300CF0ACFE73
:1042000028460622611C09300CF0A6FE09A9684662
:1042100007F0AEF9C3E7A2799209012A03D1E7E7D3
:10422000A2799209E4D00846B9E70721490701229B
:1042300010B541189203914214D3102010BD000014
:1042400038000020F034000086050000FFFF000069
:10425000E8100020012A00000000FC1F00400020A0
:1042600002320000F949024609680B7A0931184602
:1042700000F0ABFD0020E1E7FFB599B00446002057
:1042800069460871087208A90874087515461E4623
:104290000520012180038904ED4AEE4B002C06D055
:1042A00084420DD3671A97420AD39C4208D2002D4C
:1042B00009D0854204D3681A904201D39D4202D3AB
:1042C00010201DB0F0BD2046284318D01F270CAB8E
:1042D00001AA009720461A99FEF7B6FF0028F0D1F0
:1042E0000DAB02AA314628460097FEF7ADFF002825
:1042F000E7D16846007AC10703D00A20E1E707202A
:10430000DFE7800705D568460079800701D50B20D7
:10431000D7E7FFF729FF002801D01120D1E703AF2D
:10432000002C0FD01A20694608731A98887321460A
:10433000F81C1A9A0CF010FE0EA903A807F018F941
:104340000028BED1002D0ED020216846017386734F
:1043500032462946F81C0CF0FFFD0EA903A807F011
:1043600007F90028ADD1B94908A80968007C087090
:104370000020A6E7F0B5044695B000201490052073
:104380008003844275D301208004B14F201AB842C3
:104390006FD3B04884426CD2207801280CD105211B
:1043A00060688903884264D301218904411AB942B3
:1043B0005FD3A84988425CD200F002FD022809D0F0
:1043C00000F0FEFC032805D0A048BE210068095C6F
:1043D000012902D0082015B0F0BDC121095CCA0630
:1043E000920F03D18A0701D4490701D51120F2E7C2
:1043F0002178012915D0228A974D1346203BAB42E4
:1044000072D2022901D0032901D1A02A6CD301293B
:1044100007D00278D20704D0628A002A64D0B42A76
:1044200062D8002906D0012908D0022904D0032926
:104430005AD110E0002512E0022510E06168012544
:10444000097800290BD0012907D0022905D00329BA
:1044500003D08248BFE7032501E001211491217AAE
:10446000002907D0012907D0022907D003293BD111
:1044700006E037E0002604E0012602E0022600E024
:104480000326002D01D0022D3FD1002E3DD0E16842
:10449000002929D00A79002A27D0082A24D80B7BA2
:1044A0009C46082B20D8002A0CD005230A689B03C1
:1044B0009A4217D301239B04D31ABB4212D3654BF4
:1044C0009A420FD26246002A13D0896805229203CD
:1044D000914207D3012292048A1ABA4202D35D4A5A
:1044E000914206D3102076E75EE00B7B002B5BD079
:1044F000D5E70178890702D05848401E6BE7022DA6
:1045000003D1022E50D0032E4ED0182269460A70D5
:10451000228A4A80228A8A808D71007A01270028A7
:1045200002D001287ED102E00020C87100E0CF71E6
:1045300014980872217802A80130012922D006219E
:104540000CF067FD07216846C173067409A907F0DE
:104550000FF80028C7D10A206946087009A96846E3
:1045600007F006F80028BED13A206946087009A96C
:10457000684606F0FDFF0028B5D1002D08D0022DB9
:1045800006D04AE061680622491C0CF0E5FCD9E738
:10459000002E42D0002623E00168B00009580978B7
:1045A000002903D0012905D0072014E700216A461D
:1045B000917001E069468F70E16806220968095828
:1045C00000A8491C03300CF0C7FC0B20694608709A
:1045D00009A9684606F0CCFF002884D1761CF6B203
:1045E000E0680179B142D7D8002612E08068B100B6
:1045F000415800A8102202300CF0AEFC3B20694666
:10460000087009A9684606F0B3FF0028CDD1761CD2
:10461000F6B2E068017BB142E8D81B216846017020
:10462000877000E02DE009A906F0A2FF0028BCD1A8
:1046300008A840791B2824D1002D15D0012D0FD0BA
:10464000022D20D0032D12D11DE0000038000020E3
:104650000000FC1F00400020E13F0000023200008B
:104660000320FEF743FD10E00320FEF73FFD608AC4
:1046700000280AD08200002108460AF070FD0028B8
:1046800003D00320A7E60220EFE70020A3E670B5E1
:1046900086B006460C000CD00520800384424BD324
:1046A00001208004FA49201A884245D3F9488442FF
:1046B00042D2F94DBF212868095C022903D0C030DD
:1046C0004078400702D5112006B070BD002C04D000
:1046D0002046FEF78DFD0028F6D13046FEF753FD4B
:1046E000012803D0022823D0EC48EDE721001BD19C
:1046F000082069468882286801ABC08805AA002185
:1047000002F07CFE0028DFD16846808A082801D0AC
:104710000320D9E7684681888181C188C1810189E8
:1047200001824189418203A9304601F084FBCBE735
:10473000002C01D00620C7E71020C5E770B50D4654
:104740000446FEF720FD012803D0022801D0D348FB
:1047500070BD29462046FEF710FE70BD00B501462B
:10476000283095B02D2805D208462730132801D3CC
:10477000880702D0072015B000BDFFF7F5FC002820
:1047800001D01120F7E7C448312200684170684623
:104790000270817009A906F0EBFEECE701B582B06A
:1047A000022069460880BC4802AB00686A468088DF
:1047B000002102F0AAFC69460988022900D00320E2
:1047C0000EBD38B502216A46118007214907012232
:1047D00041189203914201D3102038BDAE490346DF
:1047E00009686A468C880021204602F007FE694667
:1047F00009880229F1D0032038BD3EB504460820BF
:104800006946088005208003844208D30120800483
:104810009F49201A884202D39E48844201D3102027
:104820003EBD2046FEF7E4FC0028F9D12088694609
:1048300088806088C880A0880881E0884881964880
:1048400001AB00686A46C088002102F05EFC694640
:1048500009880829E4D003203EBD1FB5044608207E
:104860006946888105208003844208D301208004A2
:104870008749201A884202D38648844202D31020F6
:1048800004B0DBE484486B46006803AAC0880021BA
:1048900002F0B4FD0028F3D169468989082901D0C6
:1048A0000320EDE7694609882180694649886180CF
:1048B00069468988A1806946C988E180E0E7FEB53C
:1048C0000546052080030E461746814208D3012184
:1048D00089046F4A731A934202D36E4B9E4201D3EE
:1048E0001020FEBD142F01D90C20FEBD6A4C85425C
:1048F0002AD3681A904227D39D4225D2206801A965
:10490000408802F0B4FB0028EFD12878694648714E
:10491000206801A9408802F08DFB0028E5D1694696
:104920000090087802210843694608704979090710
:1049300003D008210843694608702068694640880A
:1049400002F024FB0028D0D169460F81206833464D
:10495000408802AA002102F0D8FB69460989B942C1
:10496000C3D00320FEBD38B50C46072149070122FC
:1049700043189203934202D26118914201D310204E
:1049800038BD21886A46118000290BD04249034670
:1049900009684D880021284602F030FD69460988E3
:1049A000218038BD0C2038BD10B50C460521890387
:1049B00086B08C4208D301218904354A611A91429C
:1049C00002D334498C4202D3102006B036E4324977
:1049D0000968A031897F052901D00820F5E7FEF795
:1049E000D2FB012803D0022826D02C48EDE72088EE
:1049F0001E2801D20720E8E70620FEF777FB0521F5
:104A00006846017000798108A0788900C007C00F4E
:104A1000014368460171FB200140A0788007C00F68
:104A200080000143684601712188C18008F0F9FACD
:104A30000028CAD00320C8E70620C6E770B586B0B4
:104A40000D461446FEF79FFB012803D0022801D033
:104A5000124839E6104EC0213068095CC90706D0FB
:104A6000BE21095C042902D0002D02D05AE00820A2
:104A70002AE6052189038C4208D301218904044ACE
:104A8000611A914202D303498C4209D310201BE6DC
:104A90000000FC1F00400020380000200130000012
:104AA000A178C906490F04290CD8E178072909D350
:104AB000102907D822798A4204D3102A02D82288E2
:104AC0001E2A01D00720FFE58030026BF723917288
:104AD000026B2179D172026B117A1940A3789B067F
:104AE000DB0FDB0019431172026B21889181026B8D
:104AF000A378517ADB0789088900DB0F19435172CB
:104B0000FB231940A378026B9B07DB0F9B00194323
:104B10005172006BA278017AD206C908C900520FFF
:104B2000114301720B2069460870852D25D008DCE1
:104B3000002D1AD0812D1AD0822D1AD0832D08D1A4
:104B400019E0862D1BD0882D1BD0892D1BD08A2DD6
:104B50001BD00B2008710520FEF7C8FA684608F044
:104B600060FA002813D00320AEE50020F2E7012010
:104B7000F0E70220EEE70320ECE70520EAE7062055
:104B8000E8E70820E6E70920E4E70A20E2E73068E2
:104B9000C0300178490849000170002094E570B5E3
:104BA000984E0D46316886B0C03109781446090721
:104BB00001D4082088E5FEF7E6FA012803D0022890
:104BC00001D0914880E505208003844208D301206C
:104BD00080048E49201A884202D38D48844201D332
:104BE000102071E5022D03D0012D03D007206BE5C5
:104BF000022000E001206946087103200294087039
:104C0000684608F00EFA002801D003205CE5306801
:104C1000F722C030017811400170002054E570B5D2
:104C200094B00E461446FEF7AEFA012804D00228CE
:104C300002D0754814B070BD724D2868C03000783D
:104C4000800701D40820F5E7002C01D00720F1E708
:104C5000FFF78AFA002801D01120EBE7002E1DD0C3
:104C60002D21684601702C68B420015B68464180A4
:104C70001022B11C01A80CF06FF9207FFB21084025
:104C8000B17CC907490F08432077B07CFF21400859
:104C9000A076E08A82310843E08207E02E21684650
:104CA00001702868A030818A6846418009A9684659
:104CB00006F05EFC2968FD23C0310A781A400A70AC
:104CC000B8E710B50C46FEF75EFA012803D00228BB
:104CD00001D04D4810BD05208003844208D3012037
:104CE00080044A49201A884202D34948844201D3A9
:104CF000102010BD2046FEF755FA002010BD30B53B
:104D000095B00446FEF73FFA012804D0022802D0ED
:104D10003D4815B030BD3B4D2868C030C0780028F4
:104D200001D00820F5E7FFF71FFA002801D0112075
:104D3000EFE7382168460170448001240471447112
:104D400009A906F015FC002801D00B20E1E728682E
:104D5000C030C4700020DCE730B595B00446FEF7E3
:104D600012FA012803D0022801D02748D1E7254DA7
:104D70002868C030C078002805D0FFF7F5F9002872
:104D800003D01120C5E70820C3E738216846017029
:104D9000448000240471447109A906F0E9FB00284D
:104DA000B7D12868C030C4700020B2E71548006849
:104DB000A030807F052801D3012070470020704774
:104DC00010480068A030807F704708B5134600285F
:104DD00006D010A00068009048796A468009105CEF
:104DE00018700622581C0CF0B7F808BD10B5044620
:104DF000FDF777FB922101700ECC08300EC0FDF755
:104E00008CFB10BD38000020013000000000FC1FAA
:104E1000004000200302FF01FFB50E4681B001995A
:104E20001446CA78214635460A3110350A98009151
:104E3000022A09D0032A47D0052A7DD0F8A1FD48CF
:104E40000CF009FA05B0F0BDF7890A2179430A315F
:104E5000198031210180002CF4D0707A002804D010
:104E6000FF20EFA19B300CF0F6F970680088A0805D
:104E70000020E080317B2781891FCEB2009C1AE0A0
:104E800028886968208048780A7800021043E0800A
:104E9000C8788A78000210432081A21C091D304680
:104EA00009F0B0FC002E01D0002802D000202071B3
:104EB000608008350A3438467F1EBFB20028DFD133
:104EC00001990020C870BDE7F7890A2179430A31AA
:104ED000198032210180002CB4D070680088A08035
:104EE0000020E080307B2781401FC6B2009C43E059
:104EF00069682A880878E2802279C307520852003C
:104F0000DB0F1A43FD231A408307DB0F5B001A43B4
:104F1000FB231A404307DB0F9B001A43F7231A4079
:104F20000307DB0FDB001A43EF231A40C306DB0F36
:104F30001B011A43DF2300E024E01A408306DB0F45
:104F40005B011A43BF231A404306DB0F9B011A4340
:104F50002271C00960718A784B7810021843208151
:104F60002246C91C304609F04DFC002802D0002022
:104F7000A070208008350A3438467F1EBFB2002852
:104F8000B6D19DE7317BF789891E89B2009108313E
:104F900079430C31198034210180002C93D0706842
:104FA0000088A0800020E0802781009860810C3478
:104FB000F80006190BE02888208066606968304692
:104FC000009A0BF0C9FF00980835083436183846A7
:104FD0007F1EBFB20028EED172E7F8B50546C07853
:104FE0001E460C46069F03000CF035FA09C1061553
:104FF000323F4C6C919EC1000092207B082806D065
:10500000032804D08B4886A11F300CF024F90A2015
:10501000308030200BE00092207B042804D08548AB
:105020007FA13B300CF017F90A2030803120388006
:105030000098002845D06068018800988180607AD7
:105040000099FF300130C88000990020088137E0C6
:105050000092207B042804D0AB2071A180000CF0CA
:10506000FAF80A2030803220E1E70092207B022803
:1050700004D070486AA171300CF0EDF80A2030803D
:105080003320D4E70092207B042804D0694864A12F
:105090008B300CF0E0F80C20308034203880009801
:1050A00000280ED06068018800988180607A00999D
:1050B000FF300130C88000990020088100994881A4
:1050C000E870F8BD0092207B052806D0062804D0A1
:1050D000584853A1A7300CF0BEF80E203080352080
:1050E000388000980028ECD06068018800988180A2
:1050F000607A0099FF300130C8800098E189018111
:105100000099002088810099AA884A81D8E70092F6
:10511000207B072804D0474841A1BD300CF09BF804
:105120000A203080362082E70092207B0C2804D0B1
:1051300040483BA1D1300CF08EF80E203080372053
:10514000388000980028BCD0606801880098818071
:10515000607A0099FF300130C8800098E1890181B0
:10516000009900208881009901228A72A8E71B20FB
:105170002BA140010CF06FF8F8BD70B50546007822
:105180000C46082603000CF066F910593232221A38
:10519000360909090909090909090959687800281E
:1051A00003D01FA124480CF056F8002C03D122484C
:1051B0001BA1401C08E060783043607020E0002CA8
:1051C000F9D11D4816A109300CF045F8F3E7002984
:1051D00004D0194812A111300CF03DF8FDF781F907
:1051E0000446407830436070FDF797F908E0E92005
:1051F0000BA1800002E0104809A120300CF02BF830
:10520000002C0AD06078000707D583202070204644
:10521000582229460830FAF7D3FF002070BD00005D
:105220007372635C67617474635F636F72652E632E
:10523000000000005602000089030000FD49FE48FE
:10524000DCE710B50020FD4CFD490346C2008C523E
:105250005218401C0006D370000EF7D010BDF8495C
:1052600008800120887000207047F5490020887070
:10527000704710B50020F249C043088006F0B2F92B
:1052800010BDF7B584B005460027684607818780C2
:1052900068680C46008800F068FB0646287A0328F8
:1052A00006D0002E04D1E448E24938300BF0D3FF99
:1052B0002A7A2146D21E0E3102A8009113000CF06A
:1052C000CAF80DD2CAE31808A920455E10B183833D
:1052D000E300009001AB22462946304600F06BFB0C
:1052E000D7E0009001AB22462946304600F09BFBF8
:1052F000CFE0009001AB22462946304600F0E5FBA6
:10530000C7E0F078062804D0FF20CA4920300BF00F
:10531000A2FFE88969460E30888035200881002C7C
:10532000DED0687A002803D0FF20C249283023E06D
:1053300068680188A180E780A9892181B18861819D
:10534000E989A181EA89296900983AE0F07806287C
:1053500004D0FF20B7493A300BF07DFFE889694659
:105360000E30888035200881002CB9D0687A00285A
:10537000DED0FF20AF4942300BF06DFFD8E7F07868
:10538000072804D0FF20AB4954300BF064FFA889F4
:1053900069460A30888036200881002C79D0687AE6
:1053A000002804D0FF20A3495C300BF054FF68684C
:1053B0000188A180E780A98921812046AA890A3035
:1053C00029690BF0C9FD44E0E88969460E3080B2D6
:1053D000382288800A81002C53D0687A002804D0B3
:1053E000FF20944973300BF036FF68680188A18074
:1053F000E780287A0E280BD00221A172A989218189
:10540000E989A181EA89296900980BF0A5FD40E0AE
:105410000121F2E7009001AB224629463046FFF712
:10542000FBFC36E0F078082803D0824985480BF071
:1054300012FF0E216846818037210181002C28D07F
:1054400068680188A180E780A9892181A78101205E
:10545000A072F7701DE0009001AB2246294630464D
:10546000FFF7BBFD15E009206946392288800A81D3
:10547000002C06D00120E08071480188A1802772AD
:1054800007E00699088010E06B486A496C300BF021
:10549000E2FE6846069980880880002C05D06846A0
:1054A00000892080684680886080002007B0F0BDB9
:1054B000F7B594B00F461546149800F061FA040051
:1054C00007D0032000F04AFB022804D3112017B0B4
:1054D000F0BD5D48FBE71720694601260883002DD3
:1054E0000ED00321684601711021018210AA04A97F
:1054F0002846059209F0C2F900280DD00720E6E7FA
:1055000008216846017100210781C94341810521B5
:105510008673C90281810CE0A878A0712888A080D8
:10552000684605218673C902818100210781C9432C
:10553000418109AA023206A901A806F08BF80028C9
:1055400002D000F027FAC2E707A800906846038B54
:1055500004220321149800F017FB0028B7D1E6704D
:10556000B5E770B592B00C0006460BD000F008FA13
:10557000050009D0032000F0F1FA022806D311201B
:1055800012B04BE61020FBE72F48F9E717216846D9
:10559000818004210172218881816188C18101217A
:1055A00081742A4901820AAA023201A902A806F0DE
:1055B00051F8002802D000F0EDF9E1E708A80090CA
:1055C0006846838804220321304600F0DDFA002873
:1055D000D6D10221E970D3E770B592B00C0006462F
:1055E0000AD000F0CDF9050008D0032000F0B6FA8B
:1055F000022805D31120C3E71020C1E71248BFE7F6
:105600001721684681800421017221888181618887
:10561000C181012181740D490AAA491C018202320B
:1056200001A902A806F016F8002811D000F0B2F97E
:10563000A6E7000020520000AD030000FFFF0000BD
:105640003C0000205F020000013000000228000042
:1056500008A800906846838804220321304600F0A1
:1056600093FA00288CD10321E97089E770B592B0D4
:105670000C0006460AD000F083F9050008D003208C
:1056800000F06CFA022805D3112079E7102077E7A3
:10569000FA4875E702216846017221888181618894
:1056A000C181172181800AAA023201A902A805F04E
:1056B000D1FF002802D000F06DF961E708A8009042
:1056C0006846838804220321304600F05DFA0028F2
:1056D000DBD10421E97053E7F0B591B00E46140018
:1056E00007460BD000F04CF9050009D0032000F06C
:1056F00035FA022806D3112011B0F0BD1020FBE7C7
:10570000DE48F9E71721684681800421017221886B
:1057100081816188C181B1788174318801820AAA4E
:10572000023201A902A805F095FF002802D000F07E
:1057300031F9E1E708A80090684683880422032134
:10574000384600F021FA0028D6D10521E970D3E7C8
:10575000F7B592B00E461546129800F011F9040004
:1057600007D0032000F0FAF9022804D3112015B065
:10577000F0BDC248FBE70627002D12D0684607722D
:105780008681C581A5801720694688800AAA0232D1
:1057900001A902A805F05EFF002807D000F0FAF882
:1057A000E5E70521684601728681EBE708A80090CD
:1057B0006846838804220321129800F0E5F9002846
:1057C000D5D1E770D3E7F7B592B00D0016460BD0F0
:1057D000129800F0D5F8040008D0032000F0BEF9BC
:1057E000022805D31120C2E71020C0E7A348BEE776
:1057F00007276846077286811721049581800AAAC7
:10580000023201A902A805F025FF002802D000F00D
:10581000C1F8ACE708A800906846838804220321F9
:10582000129800F0B1F90028A1D1E7709FE7F3B515
:1058300093B00C0013D02078022808D0012806D09D
:10584000032812D0042810D005280ED019E0A06833
:10585000002804D0E088142803D90C2087E7102002
:1058600085E7A08800280CD101E006207FE7139887
:1058700000F086F8050006D02078012811D0022813
:1058800003D0072073E77D4871E70921684601725C
:1058900061888181E188C181A0680826072704907A
:1058A0000AE00C216846017261888181E188C1812A
:1058B000A068032602270490304600F04FF9B84252
:1058C00002D36E48801C52E71720694688800AAAD6
:1058D000023201A902A805F0BDFE002802D000F0A6
:1058E00059F844E708A800906846838804223146A6
:1058F000139800F049F90028B0D12178012903D08C
:105900000229ABD0032032E70821E9702FE730B538
:1059100091B00C46054600F033F8002808D003206B
:1059200000F01CF9022805D35448801C11B030BD8A
:105930005248FBE70D21684601710481172101835C
:1059400009AA023206A901A805F084FE002802D0A7
:1059500000F020F8EAE707A800906846038B0422CD
:105960000321284600F010F9E0E74549884205D0B8
:1059700044490988814201D142487047002070475C
:1059800010B5FFF7F2FF002802D08178C90700D1D7
:10599000002010BD002806D0012805D0052805D01C
:1059A000062805D003207047112070470820704753
:1059B0003248401C7047F8B50646C0780D4614467C
:1059C0001F46012803D03049AB200BF044FCA889C6
:1059D0003021C0000A3038800698002C018021D088
:1059E000687A002803D02849B7200BF034FC686897
:1059F00000210088A080E180A88920810A460DE06E
:105A0000D000B37900190373B388438193005B1905
:105A1000DF89C7811B8A521C038292B2208990427F
:105A2000EED8F170F8BDFFB587B00798109FC07829
:105A30000E4615461C46012803D01349D0200BF012
:105A40000AFCF089C0000A30208030203880307B8A
:105A5000001FC0B20090002D35D0707A002803D00E
:105A60000949E0200BF0F7FB70680088A88000204F
:105A7000E880F089288100271FE000000130000045
:105A8000FFFF00003C00002020520000F8004419F5
:105A900080190590224641690A32009808F0B2FE4A
:105AA000002802D000202073608105987F1C008AA6
:105AB000E0810598BFB2408A20822889B842E5D8A3
:105AC00007990020C8700BB0F0BDF8B50646C07845
:105AD0000D4614461F46042804D0FF201849013003
